:020000040800F2
:1000000000000220891A0008151A0008171A0008B3
:10001000191A00081B1A00081D1A00080000000029
:100020000000000000000000000000001F1A00088F
:10003000211A000800000000231A0008251A0008F1
:10004000D91A0008D91A0008D91A0008D91A0008C4
:10005000D91A0008D91A0008D91A0008D91A0008B4
:10006000D91A0008D91A0008D91A0008D91A0008A4
:10007000D91A0008D91A0008D91A0008D91A000894
:10008000D91A0008D91A0008D91A0008D91A000884
:10009000D91A0008D91A0008D91A0008D91A000874
:1000A000D91A0008D91A0008D91A0008D91A000864
:1000B000D91A0008D91A0008D91A0008D91A000854
:1000C000D91A0008D91A0008D91A0008D91A000844
:1000D000D91A0008D91A0008D91A0008D91A000834
:1000E000D91A0008D91A0008D91A0008D91A000824
:1000F000D91A0008D91A0008D91A0008D91A000814
:10010000D91A0008D91A00082D1A0008D91A0008AF
:10011000D91A0008D91A0008D91A0008D91A0008F3
:10012000D91A0008D91A0008D91A0008D91A0008E3
:10013000D91A00080000000000000000D91A0008C9
:10014000D91A0008D91A0008D91A0008D91A0008C3
:10015000D91A0008D91A0008D91A0008D91A0008B3
:10016000D91A0008D91A0008D91A0008D91A0008A3
:10017000D91A0008D91A0008D91A0008000000008E
:1001800000000000D91A0008000000000000000074
:10019000D91A00080000000000000000D91A000869
:1001A000000000000000000000000000D91A000854
:1001B000D91A0008D91A0008D91A0008D91A000853
:0401C000D91A000840
:1001C40010B5054C237833B9044B13B10448AFF38D
:1001D40000800123237010BD0C00002000000000EB
:1001E400341B000808B5034B1BB103490348AFF3A4
:1001F400008008BD0000000010000020341B00082F
:1002040053B94AB9002908BF00281CBF4FF0FF3179
:100214004FF0FF3000F072B9ADF1080C6DE904CE77
:1002240000F006F8DDF804E0DDE9022304B07047CD
:100234002DE9F047089E04468846002B4BD18A429C
:10024400154667D9B2FA82F24AB1C2F1200701FA1F
:1002540002F320FA07F7954047EA030894404FEA6F
:10026400154E230CB8FBFEF71FFA85FC0EFB17880E
:1002740043EA084307FB0CF1994209D9EB1807F14B
:10028400FF3080F01B81994240F21881023F2B44D9
:100294005B1AA4B2B3FBFEF00EFB103344EA034432
:1002A40000FB0CFCA44509D92C1900F1FF3380F0A4
:1002B4000781A44540F2048102382C4440EA0740F7
:1002C400A4EB0C0400271EB1D4400023C6E900436C
:1002D4003946BDE8F0878B4209D9002E00F0EB8047
:1002E4000027C6E9000138463946BDE8F087B3FA6D
:1002F40083F7002F47D18B4202D3824200F2FA8067
:10030400841A61EB030301209846002EE0D0C6E96D
:100314000048DDE702B9FFDEB2FA82F2002A40F0BB
:100324008F80491B4FEA154E1FFA85F80127B1FB50
:10033400FEFC230C0EFB1C1143EA014308FB0CF1E9
:10034400994207D9EB180CF1FF3002D2994200F21E
:10035400CD808446591AA3B2B1FBFEF00EFB1014F3
:1003640043EA044408FB00F8A04507D92C1900F11E
:10037400FF3302D2A04500F2B6801846A4EB08046D
:1003840040EA0C409FE7C7F1200CBB4022FA0CFE68
:100394004EEA030E01FA07F420FA0CF521FA0CF3E5
:1003A4004FEA1E482543B3FBF8F92C0C08FB19331C
:1003B4001FFA8EFA44EA034309FB0AF49C4202FA48
:1003C40007F200FA07F10BD91EEB030309F1FF3022
:1003D40080F087809C4240F28480A9F10209734432
:1003E4001B1BADB2B3FBF8F008FB103345EA034422
:1003F40000FB0AFAA24508D91EEB040400F1FF33FE
:100404006BD2A24569D90238744440EA0940A0FB82
:100414000289A4EB0A044C45C2464B4654D351D03E
:10042400002E69D0B1EB0A0564EB030404FA0CFC5A
:10043400FD40FC404CEA0505C6E90054002747E7A7
:10044400C2F1200320FA03F7954001FA02F021FAE1
:1004540003F34FEA154E3843010CB3FBFEF71FFAC2
:1004640085F80EFB173341EA034107FB08F38B427F
:1004740004FA02F407D9691807F1FF3C2FD28B4222
:100484002DD9023F2944CB1A81B2B3FBFEF00EFBF7
:10049400103341EA034100FB08F38B4207D9691882
:1004A40000F1FF3C17D28B4215D902382944C91AEE
:1004B40040EA07473BE73746304609E70746E7E6A1
:1004C4001846FBE64145ABD2B8EB020A69EB0E02D3
:1004D40001381346A4E76046E9E7184695E76746FE
:1004E400D1E781467CE702382C4447E7ACF1020CA3
:1004F4002B442FE7384608E73746E9E6704700BF44
:1005040010B504460E4B18784FF47A73B3FBF0F32E
:100514000C4A1068B0FBF3F000F096F868B90F2CA1
:1005240001D901200AE0002221464FF0FF3000F0FB
:1005340049F8034B5C60002000E0012010BD00BFBF
:10054400000000200800002008B50B4B1A6842F494
:1005540000721A601A6842F480621A601A6842F4DF
:1005640080721A60032000F01BF80020FFF7C8FF18
:1005740001F0D4F9002008BD003C0240034A116890
:10058400034B1B780B441360704700BF2800002006
:1005940000000020014B1868704700BF28000020AD
:1005A400074AD36823F4E0631B041B0C000200F425
:1005B400E060184340F0BF6040F40030D060704702
:1005C40000ED00E030B4174BDB68C3F30223C3F142
:1005D4000704042C28BF04241D1D062D18D9033B31
:1005E4004FF0FF3505FA04F421EA0401994005FAB5
:1005F40003F322EA0303194300280BDB0901C9B200
:1006040000F1604000F5614080F8001330BC704791
:100614000023E5E700F00F000901C9B2024B1954A9
:10062400F4E700BF00ED00E014ED00E0002807DB74
:1006340000F01F02400901239340024A42F820308F
:10064400704700BF00E100E00138B0F1807F0AD2BA
:10065400064B5860064AF02182F823100020986067
:1006640007221A6070470120704700BF10E000E0C5
:1006740000ED00E000230F2B00F2D180F0B482B033
:1006840039E0062200E00022B2403A430234644ECC
:1006940046F82420634A1468EA4302EA04064F68D1
:1006A40017F4803F01D045EA04065E4C2660646876
:1006B40002EA04064F6817F4003F01D045EA040635
:1006C400584C6660A46802EA04064F6817F4801F59
:1006D40001D045EA0406534CA660E46822404E6803
:1006E40016F4001F01D045EA04024E4CE2600133C7
:1006F4000F2B00F2918001229A400C6804EA020553
:10070400AA42F4D14C68022C01D0122C10D1DE087C
:10071400083650F826C003F00704A7000F24BC4095
:100724002CEA040C0C69BC4044EA0C0440F8264052
:1007340004685F000326BE40F64306EA040C4C68D6
:1007440004F00304BC4044EA0C0404604C6804F163
:10075400FF3CBCF1010F03D9112C01D0122C10D194
:10076400846806EA040CCC68BC4044EA0C04846047
:10077400446824EA02024C68C4F300149C40144305
:100784004460C26816408A68BA403243C2604A680C
:1007940012F0805FABD000220192234A546C44F4DF
:1007A40080445464526C02F480420192019A9C0881
:1007B400A61C1B4A52F8267003F0030296000F226F
:1007C400B24027EA0207194A90423FF45CAF02F5AF
:1007D4008062904216D002F58062904214D002F5F5
:1007E4008062904212D002F58062904210D002F5ED
:1007F400806290420ED002F5806290423FF441AF95
:10080400072241E701223FE702223DE703223BE7BB
:10081400042239E7052237E702B0F0BC704770477D
:1008240000380140003C0140003802400000024012
:1008340012B909048161704781617047436931EAE3
:10084400030301D08161704709048161704700008E
:10085400002800F09D8070B504464F4B1B6803F0E0
:100864000F038B4209D2CBB24B4A1370136803F0C7
:100874000F038B4201D0012070BD236813F0020FD7
:1008840017D013F0040F04D0444A936843F4E053A0
:100894009360236813F0080F04D0404A936843F42C
:1008A400604393603D4A936823F0F003A0680343D8
:1008B40093600D46236813F0010F32D06368012B57
:1008C40021D09A1E012A25D9344A126812F0020F47
:1008D40060D032498A6822F0030213438B60FFF729
:1008E40059FE06462D4B9B6803F00C036268B3EB7C
:1008F400820F16D0FFF74EFE801B41F288339842D8
:10090400F0D90320B8E7254A126812F4003FE0D179
:100914000120B1E7214A126812F0007FD9D10120E9
:10092400AAE71D4B1B6803F00F03AB4209D9EAB2D7
:10093400194B1A701B6803F00F03AB4201D001205E
:100944009AE7236813F0040F06D0144A936823F43B
:10095400E053E1680B439360236813F0080F07D05A
:100964000E4A936823F46043216943EAC103936008
:1009740000F040F8094B9B68C3F30313084AD35CA7
:10098400D840084B18600020FFF7BAFD002073E739
:100994000120704701206FE7003C0240003802400C
:1009A4004C1B000808000020014B1868704700BF6A
:1009B4000800002008B5FFF7F7FF044B9B68C3F35A
:1009C4008223034AD35CD84008BD00BF00380240EC
:1009D4005C1B000808B5FFF7E7FF044B9B68C3F3F3
:1009E4004233034AD35CD84008BD00BF00380240FC
:1009F4005C1B00082DE9F04B5C4B9B6803F00C0377
:100A0400082B07D00C2B5BD0042B00F0AD8058488A
:100A1400BDE8F08B554B5A6802F03F025B6813F453
:100A2400800F2AD0514B5B68C3F388131E460027FE
:100A34005C010025E41A65EB0705A90141EA94610C
:100A4400A001001B61EB0501CB0043EA5073C40015
:100A5400A01943EB07014B0243EAD053440220465A
:100A640019460023FFF7CCFB404B5B68C3F30143FB
:100A740001335B00B0FBF3F0CAE73C4B5B68C3F3A4
:100A840088131E4600275C010025E41A65EB070560
:100A9400A90141EA9461A001001B61EB0501CB00AF
:100AA40043EA5073C400A01943EB07018B0243EAE5
:100AB40090538402204619460023FFF7A1FBD3E795
:100AC4002A4B5A6802F03F025B6813F4800F28D067
:100AD400264B5B68C3F388131E4600275C01002580
:100AE400E41A65EB0705A90141EA9461A001001B22
:100AF40061EB0501CB0043EA5073C400A01943EB3A
:100B040007014B0243EAD05344022046194600230E
:100B1400FFF776FB154B5B68C3F30273B0FBF3F08E
:100B240076E7124B5B68C3F388131E4600275C010B
:100B34000025E41A65EB0705A90141EA9461A001C7
:100B4400001B61EB0501CB0043EA5073C400A019FC
:100B540043EB07018B0243EA905384022046194673
:100B64000023FFF74DFBD5E7024851E70038024068
:100B74000024F40000127A0070B582B004460368C1
:100B840013F0010F41D0A64B9B6803F00C03042B18
:100B940032D0A34B9B6803F00C03082B27D0A04B47
:100BA4009B6803F00C030C2B59D06368B3F5803FAA
:100BB4005BD0B3F5A02F5ED0994B1A6822F4803233
:100BC4001A601A6822F480221A606368002B5CD0D1
:100BD400FFF7E0FC0546924B1B6813F4003F14D169
:100BE400FFF7D8FC401B6428F5D903209DE18C4B0A
:100BF4005B6813F4800FD2D0894B1B6813F4003F59
:100C040003D06368002B00F08D81236813F0020F7A
:100C140067D0834B9B6813F00C0F4AD0804B9B68C2
:100C240003F00C03082B3FD07D4B9B6803F00C03AF
:100C34000C2B48D0E368002B74D07A4B01221A6045
:100C4400FFF7A8FC0546764B1B6813F0020F60D132
:100C5400FFF7A0FC401B0228F5D9032065E1704B87
:100C64005B6813F4800FA0D0C6E76D4A136843F4A1
:100C740080331360A9E76A4B1A6842F480221A6031
:100C84001A6842F480321A609FE7FFF783FC054636
:100C9400634B1B6813F4003FB7D0FFF77BFC401B8A
:100CA4006428F5D9032040E15D4B5B6813F4800FA1
:100CB400BAD15B4B1B6813F0020F0AD0E368012B17
:100CC40007D0012031E1564B5B6813F4800FB1D19A
:100CD400EFE7534A136823F0F803216943EAC10399
:100CE4001360236813F0080F40D0636963B34E4B5D
:100CF40001221A60FFF74EFC0546494B5B6F13F067
:100D0400020F33D1FFF746FC401B0228F5D903201C
:100D14000BE1434A136823F0F803216943EAC10352
:100D24001360DEE73F4B00221A60FFF733FC0546F1
:100D34003B4B1B6813F0020FD3D0FFF72BFC401B77
:100D44000228F5D90320F0E0374B00221A60FFF7A0
:100D540021FC0546324B5B6F13F0020F06D0FFF700
:100D640019FC401B0228F5D90320DEE0236813F0A8
:100D7400040F79D02A4B1B6C13F0805F33D100230E
:100D84000193274B1A6C42F080521A641B6C03F0D7
:100D940080530193019B0125244B1B6813F4807F2E
:100DA40023D0A368012B34D0052B41D01C4B1A6FE0
:100DB40022F001021A671A6F22F004021A67A3686C
:100DC400002B3FD0FFF7E6FB0646154B1B6F13F0D5
:100DD400020F48D1FFF7DEFB801B41F288339842B3
:100DE400F3D90320A1E00025D6E7104A136843F4A1
:100DF40080731360FFF7CEFB06460C4B1B6813F49D
:100E0400807FCED1FFF7C6FB801B0228F5D90320D3
:100E14008BE0034A136F43F001031367CFE700BF6E
:100E24000038024000004742800E474200700040F4
:100E3400404B1A6F42F004021A671A6F42F0010223
:100E44001A67BCE7FFF7A6FB06463A4B1B6F13F085
:100E5400020F08D0FFF79EFB801B41F288339842B3
:100E6400F3D9032061E0E5B9A369002B5CD0314AD2
:100E7400926802F00C02082A59D0022B17D02E4B8C
:100E840000221A60FFF786FB04462A4B1B6813F006
:100E9400007F45D0FFF77EFB001B0228F5D9032015
:100EA40043E0244A136C23F080531364DCE7224BA1
:100EB40000221A60FFF76EFB05461E4B1B6813F0F9
:100EC400007F06D0FFF766FB401B0228F5D90320FC
:100ED4002BE0E369226A1343626A43EA8213A26A3B
:100EE4005208013A43EA0243E26A43EA0263226B8C
:100EF40043EA02730F4A53600F4B01221A60FFF753
:100F040049FB04460B4B1B6813F0007F06D1FFF727
:100F140041FB001B0228F5D9032006E0002004E071
:100F2400002002E0012000E0002002B070BD01209A
:100F3400FBE700BF003802406000474210B4036A78
:100F4400046A24F001040462846924F0F00444EA8D
:100F5400021223F00A030B43826103625DF8044B1F
:100F6400704710B4036A23F0100303628469036AB0
:100F740024F4704444EA023223F0A00343EA011348
:100F8400826103625DF8044B7047836823F0700349
:100F9400194341F0070181607047022380F83D3016
:100FA4000268936803F00703062B03D0136843F029
:100FB40001031360012380F83D300020704770471F
:100FC400704770477047704710B5044603681A6944
:100FD40012F0020F11D0DA6812F0020F0DD06FF088
:100FE40002021A610123037703689B6913F0030F5C
:100FF40070D0FFF7E6FF0023237723681A6912F005
:10100400040F12D0DA6812F0040F0ED06FF004024D
:101014001A610223237723689B6913F4407F5FD00E
:101024002046FFF7CEFF0023237723681A6912F0C6
:10103400080F12D0DA6812F0080F0ED06FF0080211
:101044001A61042323772368DB6913F0030F4ED05E
:101054002046FFF7B6FF0023237723681A6912F0AE
:10106400100F12D0DA6812F0100F0ED06FF01002C9
:101074001A61082323772368DB6913F4407F3DD08A
:101084002046FFF79EFF0023237723681A6912F096
:10109400010F03D0DA6812F0010F36D123681A6900
:1010A40012F0800F03D0DA6812F0800F34D1236875
:1010B4001A6912F0400F03D0DA6812F0400F32D1EF
:1010C40023681A6912F0200F03D0DA6812F0200F97
:1010D40030D110BDFFF774FF2046FFF773FF8AE796
:1010E4002046FFF76DFF2046FFF76CFF9BE7204685
:1010F400FFF766FF2046FFF765FFACE72046FFF7E2
:101104005FFF2046FFF75EFFBDE76FF001021A6143
:101114002046FFF754FFC1E76FF080021A612046B2
:1011240000F02AF9C3E76FF040021A612046FFF786
:101134004AFFC5E76FF020021A61204600F01BF950
:10114400C7E700000368304A904212D0B0F1804FE4
:101154000FD0A2F57C4290420BD002F580629042FF
:1011640007D002F58062904203D002F578429042A3
:1011740003D123F070034A681343234A90422AD0D0
:10118400B0F1804F27D0A2F57C42904223D002F5E3
:10119400806290421FD002F5806290421BD002F51B
:1011A4007842904217D002F57052904213D002F563
:1011B400806290420FD002F5806290420BD0A2F57B
:1011C4009832904207D002F58062904203D002F533
:1011D4008062904203D123F44073CA68134323F01E
:1011E40080034A69134303608B68C3620B6883629C
:1011F400054B984203D003F58063984201D10B69F3
:10120400036301234361704700000140A8B110B596
:10121400044690F83D305BB1022384F83D30211D33
:101224002068FFF78FFF012384F83D30002010BDB4
:1012340080F83C3000F092FBEEE70120704710B4D8
:10124400846824F47F4442EA03230B4323438360EA
:101254005DF8044B704790F83C30012B66D010B514
:101264000446012380F83C30022380F83D300268B4
:10127400936823F47F4323F0770393600B68402B38
:101284004AD013D9602B3DD01ED9702B28D0B3F58A
:10129400005F30D1CB684A6889680068FFF7CFFFE8
:1012A4002268936843F48043936024E0102B06D0B3
:1012B40004D9202B03D0302B01D01CE0DBB9194614
:1012C4002068FFF762FE16E0502B14D1CA68496803
:1012D4000068FFF733FE50212068FFF756FE0AE04E
:1012E400CB684A6889680068FFF7A9FF2268936899
:1012F40043F077039360012384F83D30002084F8A1
:101304003C0010BDCA6849680068FFF72AFE6021E6
:101314002068FFF73AFEEEE7CA6849680068FFF7FD
:101324000DFE40212068FFF730FEE4E702207047FD
:1013340090F83C30012B1CD070B4012680F83C603E
:10134400022380F83D3002685568936825F07005E3
:101354000C682C4323F080054B682B4354600268CF
:10136400936080F83D60002380F83C30184670BCE0
:101374007047022070477047704700002DE9F8431A
:1013840004460268136923F44053C1680B43136194
:1013940083680269134342691343C2691A430168AB
:1013A400CB6823F4164323F00C031343CB60026889
:1013B400536923F4407381690B435361C369B3F5E3
:1013C400004F60D00368B84A934200F0148102F5DC
:1013D4008062934200F00F81FFF7ECFA00EB80008B
:1013E40000EB80006568AD00B0FBF5F5AF4FA7FBDF
:1013F40005356D092E01FFF7DDFA00EB800000EBE7
:1014040080006568AD00B0FBF5F9FFF7D3FA00EB97
:10141400800000EB80006568AD00B0FBF5F5A7FB2C
:1014240005356D094FF0640808FB15952D0132351B
:10143400A7FB05356D0905F0F0053544FFF7BAFA49
:1014440000EB800000EB80006668B600B0FBF6F6A7
:10145400FFF7B0FA00EB800000EB800063689B00AC
:10146400B0FBF3F0A7FB0030400908FB10684FEA1B
:10147400081808F13208A7FB0837C7F34317236895
:101484002F449F600DE10368874A93425BD002F5C5
:101494008062934257D0FFF78DFA00EB800000EB97
:1014A400800065686D00B0FBF5F5804FA7FB05353E
:1014B4006D092E01FFF77EFA00EB800000EB80003F
:1014C40065686D00B0FBF5F9FFF774FA00EB800076
:1014D40000EB800065686D00B0FBF5F5A7FB0535F2
:1014E4006D094FF0640808FB1595ED003235A7FB34
:1014F40005356D096D0005F4F8753544FFF75AFAA2
:1015040000EB800000EB800066687600B0FBF6F626
:10151400FFF750FA00EB800000EB800063685B008B
:10152400B0FBF3F3A7FB03235B0908FB13684FEA43
:10153400C80808F13208A7FB0837C7F34217236825
:101544002F449F60ADE0FFF745FA00EB800000EB0D
:10155400800065686D00B0FBF5F5544FA7FB0535B9
:101564006D092E01FFF736FA00EB800000EB8000D6
:1015740065686D00B0FBF5F9FFF72CFA00EB80000D
:1015840000EB800065686D00B0FBF5F5A7FB053541
:101594006D094FF0640808FB1595ED003235A7FB83
:1015A40005356D096D0005F4F8753544FFF712FA39
:1015B40000EB800000EB800066687600B0FBF6F676
:1015C400FFF708FA00EB800000EB800063685B0023
:1015D400B0FBF3F3A7FB03235B0908FB13684FEA93
:1015E400C80808F13208A7FB0837C7F34217236875
:1015F4002F449F6055E0FFF7EDF900EB800000EB0E
:1016040080006568AD00B0FBF5F5284FA7FB0535F4
:101614006D092E01FFF7DEF900EB800000EB80007E
:101624006568AD00B0FBF5F9FFF7D4F900EB800075
:1016340000EB80006568AD00B0FBF5F5A7FB053550
:101644006D094FF0640808FB15952D013235A7FB91
:1016540005356D0905F0F0053544FFF7BBF900EBDE
:10166400800000EB80006668B600B0FBF6F6FFF77A
:10167400B1F900EB800000EB800063689B00B0FBD5
:10168400F3F0A7FB0030400908FB10684FEA081884
:1016940008F13208A7FB0837C7F3431723682F4420
:1016A4009F60BDE8F88300BF001001401F85EB5127
:1016B40058B310B5044690F839300BB3242384F89A
:1016C40039302268D36823F40053D3602046FFF7EF
:1016D40055FE2268136923F4904313612268536909
:1016E40023F02A0353612268D36843F40053D36080
:1016F4000020E063202384F8393084F83A3010BDA8
:1017040080F8383000F04AF9D8E70120704700002B
:1017140030B58BB00024059406940794089409947A
:101724000194224B1A6B42F004021A631A6B02F002
:1017340004020192019A02941A6B42F080021A6325
:101744001A6B02F080020292029A03941A6B42F01E
:1017540001021A631A6B02F001020392039A0494C1
:101764001A6B42F002021A631B6B03F00203049328
:10177400049B0F4D224620212846FFF759F84FF4C9
:10178400005305930B4B0693079405A90A48FEF7EB
:1017940071FF20230593012306930794089405A958
:1017A4002846FEF767FF0BB030BD00BF003802408B
:1017B40000000240000021100008024030B587B04C
:1017C40000240294039404940594009401940E4D0F
:1017D4000E4B2B6018236B60AC604FF6FF13EB606D
:1017E4002C61AC612846FFF711FD4FF4805302933E
:1017F40002A92846FFF72FFD009401946946284664
:10180400FFF796FD07B030BD2C000020000C00400F
:1018140008B50848084B03604FF4E13343600023E4
:101824008360C36003610C2242618361C361FFF77B
:101834003FFF08BD6C00002000440040044B1B69BE
:1018440013F0010FFAD0024B00221A61704700BF57
:10185400000C004070B594B03422002107A800F0B9
:101864005FF900240294039404940594069400946C
:101874001B4B1A6C42F080521A641B6C03F08053A9
:101884000093009B0194174A136823F4404343F4E4
:1018940080431360136803F440430193019B0225C2
:1018A400079501260A9610230B930D950E94082391
:1018B4000F934023109311951295139507A8FFF7E2
:1018C4005BF90F2302930395802304934FF4805311
:1018D40005930694314602A8FEF7BAFF14B070BD12
:1018E400003802400070004008B5FEF72DFEFFF7F7
:1018F400B1FFFFF70DFFFFF761FFFFF789FF054811
:10190400FFF74BFB20210448FEF798FFFFF796FFF3
:10191400F8E700BF2C0000200000024000B583B0AF
:10192400002100910C4B5A6C42F480425A645A6C68
:1019340002F480420092009A01911A6C42F08052A3
:101944001A641B6C03F080530193019B0720FEF77C
:1019540027FE03B05DF804FB0038024002680E4B1A
:101964009A4200D0704700B583B00021019103F57D
:101974000B331A6C42F008021A641B6C03F0080360
:101984000193019B0A463220FEF71CFE3220FEF72B
:101994004DFE03B05DF804FB000C004000B589B0B7
:1019A4000023039304930593069307930268164B4D
:1019B4009A4202D009B05DF804FB0021019103F5BD
:1019C400FA331A6C42F400321A641A6C02F40032CC
:1019D4000192019A02911A6B42F001021A631B6B85
:1019E40003F001030293029B0C2303930223049349
:1019F40001230593032306930723079303A90348AD
:101A0400FEF738FED6E700BF004400400000024065
:101A14007047FEE7FEE7FEE7FEE770477047704752
:101A240008B5FEF7ABFD08BD08B50248FFF7CCFAD0
:101A340008BD00BF2C0000200F49D1F8883043F4C2
:101A44007003C1F888300D4B1A6842F001021A6025
:101A5400002098601A6822F0847222F480321A609E
:101A6400074A5A601A6822F480221A60D8604FF03C
:101A740000638B60704700BF00ED00E00038024057
:101A840010300024DFF834D0002103E00C4B5B5805
:101A9400435004310B480C4B42189A42F6D30B4A7C
:101AA40002E0002342F8043B094B9A42F9D3FFF7C2
:101AB400C3FF00F011F8FFF717FF70470000022082
:101AC400741B0008000000200C0000200C00002003
:101AD400AC000020FEE7000070B50D4E0D4CA41BB9
:101AE400A4100025A54209D10B4E0C4C00F020F89F
:101AF400A41BA4100025A54205D170BD56F82530BD
:101B040098470135EEE756F8253098470135F2E756
:101B14006C1B00086C1B00086C1B0008701B000881
:101B240002440346934200D1704703F8011BF9E7CE
:101B3400F8B500BFF8BC08BC9E467047F8B500BFB6
:081B4400F8BC08BC9E46704786
:101B4C000000000000000000010203040607080961
:081B5C00000000000102030477
:081B6400D0E6FF7F0100000044
:041B6C00E901000883
:041B7000C5010008A3
:0C1B740001000000100000000024F4003C
:0400000508001A894C
:00000001FF
